{
  "abi": [
    {
      "inputs": [
        {
          "internalType": "contract IERC20",
          "name": "token0",
          "type": "address"
        },
        {
          "internalType": "uint256",
          "name": "amount",
          "type": "uint256"
        }
      ],
      "name": "exchange",
      "outputs": [],
      "stateMutability": "nonpayable",
      "type": "function"
    },
    {
      "inputs": [
        {
          "internalType": "contract IERC20",
          "name": "_usdt",
          "type": "address"
        },
        {
          "internalType": "contract IERC20",
          "name": "_usdc",
          "type": "address"
        }
      ],
      "name": "initialize",
      "outputs": [],
      "stateMutability": "nonpayable",
      "type": "function"
    },
    {
      "inputs": [],
      "name": "initialized",
      "outputs": [
        {
          "internalType": "bool",
          "name": "",
          "type": "bool"
        }
      ],
      "stateMutability": "view",
      "type": "function"
    },
    {
      "inputs": [
        {
          "internalType": "address",
          "name": "user",
          "type": "address"
        },
        {
          "internalType": "uint256",
          "name": "amount",
          "type": "uint256"
        }
      ],
      "name": "transferUSDC",
      "outputs": [],
      "stateMutability": "nonpayable",
      "type": "function"
    },
    {
      "inputs": [
        {
          "internalType": "address",
          "name": "user",
          "type": "address"
        },
        {
          "internalType": "uint256",
          "name": "amount",
          "type": "uint256"
        }
      ],
      "name": "transferUSDT",
      "outputs": [],
      "stateMutability": "nonpayable",
      "type": "function"
    },
    {
      "inputs": [],
      "name": "usdc",
      "outputs": [
        {
          "internalType": "contract IERC20",
          "name": "",
          "type": "address"
        }
      ],
      "stateMutability": "view",
      "type": "function"
    },
    {
      "inputs": [],
      "name": "usdt",
      "outputs": [
        {
          "internalType": "contract IERC20",
          "name": "",
          "type": "address"
        }
      ],
      "stateMutability": "view",
      "type": "function"
    }
  ],
  "bytecode": {
    "object": "0x608060405234801561001057600080fd5b50610501806100206000396000f3fe608060405234801561001057600080fd5b506004361061007d5760003560e01c80633e413bee1161005b5780633e413bee146100e9578063485cc955146100fc578063d015ed6a1461010f578063f7aaaf3f1461012257600080fd5b8063045d038914610082578063158ef93e146100975780632f48ab7d146100b9575b600080fd5b61009561009036600461043d565b610135565b005b6000546100a49060ff1681565b60405190151581526020015b60405180910390f35b6000546100d19061010090046001600160a01b031681565b6040516001600160a01b0390911681526020016100b0565b6001546100d1906001600160a01b031681565b61009561010a366004610469565b6102d4565b61009561011d36600461043d565b610359565b61009561013036600461043d565b6103e5565b6000546001600160a01b0383811661010090920416148061016357506001546001600160a01b038381169116145b6101a45760405162461bcd60e51b815260206004820152600d60248201526c34b73b30b634b2103a37b5b2b760991b60448201526064015b60405180910390fd5b600080546001600160a01b0384811661010090920416146101d55760005461010090046001600160a01b03166101e2565b6001546001600160a01b03165b6040516323b872dd60e01b8152336004820152306024820152604481018490529091506001600160a01b038416906323b872dd906064016020604051808303816000875af1158015610238573d6000803e3d6000fd5b505050506040513d601f19601f8201168201806040525081019061025c91906104a2565b5060405163a9059cbb60e01b8152336004820152602481018390526001600160a01b0382169063a9059cbb906044016020604051808303816000875af11580156102aa573d6000803e3d6000fd5b505050506040513d601f19601f820116820180604052508101906102ce91906104a2565b50505050565b60005460ff161561031d5760405162461bcd60e51b8152602060048201526013602482015272185b1c9958591e481a5b9a5d1a585b1a5e9959606a1b604482015260640161019b565b6000805460016001600160a81b03199091166101006001600160a01b039586160217811790915580546001600160a01b03191691909216179055565b600080546040516323b872dd60e01b81526001600160a01b038581166004830152602482019390935260448101849052610100909104909116906323b872dd906064015b6020604051808303816000875af11580156103bc573d6000803e3d6000fd5b505050506040513d601f19601f820116820180604052508101906103e091906104a2565b505050565b6001546040516323b872dd60e01b81526001600160a01b0384811660048301526000602483015260448201849052909116906323b872dd9060640161039d565b6001600160a01b038116811461043a57600080fd5b50565b6000806040838503121561045057600080fd5b823561045b81610425565b946020939093013593505050565b6000806040838503121561047c57600080fd5b823561048781610425565b9150602083013561049781610425565b809150509250929050565b6000602082840312156104b457600080fd5b815180151581146104c457600080fd5b939250505056fea26469706673582212202a6fbf83252019d6e3427a7939977525fc8ae942fa62ba362fe9a9f4a223cb5a64736f6c63430008110033",
    "linkReferences": {}
  },
  "methodIdentifiers": {
    "exchange(address,uint256)": "045d0389",
    "initialize(address,address)": "485cc955",
    "initialized()": "158ef93e",
    "transferUSDC(address,uint256)": "f7aaaf3f",
    "transferUSDT(address,uint256)": "d015ed6a",
    "usdc()": "3e413bee",
    "usdt()": "2f48ab7d"
  },
  "id": 21
}